{
  "contractName": "Color",
  "abi": [
    {
      "inputs": [],
      "stateMutability": "nonpayable",
      "type": "constructor"
    },
    {
      "anonymous": false,
      "inputs": [
        {
          "indexed": true,
          "internalType": "address",
          "name": "owner",
          "type": "address"
        },
        {
          "indexed": true,
          "internalType": "address",
          "name": "approved",
          "type": "address"
        },
        {
          "indexed": true,
          "internalType": "uint256",
          "name": "tokenId",
          "type": "uint256"
        }
      ],
      "name": "Approval",
      "type": "event"
    },
    {
      "anonymous": false,
      "inputs": [
        {
          "indexed": true,
          "internalType": "address",
          "name": "owner",
          "type": "address"
        },
        {
          "indexed": true,
          "internalType": "address",
          "name": "operator",
          "type": "address"
        },
        {
          "indexed": false,
          "internalType": "bool",
          "name": "approved",
          "type": "bool"
        }
      ],
      "name": "ApprovalForAll",
      "type": "event"
    },
    {
      "anonymous": false,
      "inputs": [
        {
          "indexed": true,
          "internalType": "address",
          "name": "from",
          "type": "address"
        },
        {
          "indexed": true,
          "internalType": "address",
          "name": "to",
          "type": "address"
        },
        {
          "indexed": true,
          "internalType": "uint256",
          "name": "tokenId",
          "type": "uint256"
        }
      ],
      "name": "Transfer",
      "type": "event"
    },
    {
      "inputs": [
        {
          "internalType": "address",
          "name": "to",
          "type": "address"
        },
        {
          "internalType": "uint256",
          "name": "tokenId",
          "type": "uint256"
        }
      ],
      "name": "approve",
      "outputs": [],
      "stateMutability": "nonpayable",
      "type": "function"
    },
    {
      "inputs": [
        {
          "internalType": "address",
          "name": "owner",
          "type": "address"
        }
      ],
      "name": "balanceOf",
      "outputs": [
        {
          "internalType": "uint256",
          "name": "",
          "type": "uint256"
        }
      ],
      "stateMutability": "view",
      "type": "function"
    },
    {
      "inputs": [
        {
          "internalType": "uint256",
          "name": "",
          "type": "uint256"
        }
      ],
      "name": "colors",
      "outputs": [
        {
          "internalType": "string",
          "name": "",
          "type": "string"
        }
      ],
      "stateMutability": "view",
      "type": "function"
    },
    {
      "inputs": [
        {
          "internalType": "uint256",
          "name": "tokenId",
          "type": "uint256"
        }
      ],
      "name": "getApproved",
      "outputs": [
        {
          "internalType": "address",
          "name": "",
          "type": "address"
        }
      ],
      "stateMutability": "view",
      "type": "function"
    },
    {
      "inputs": [
        {
          "internalType": "address",
          "name": "owner",
          "type": "address"
        },
        {
          "internalType": "address",
          "name": "operator",
          "type": "address"
        }
      ],
      "name": "isApprovedForAll",
      "outputs": [
        {
          "internalType": "bool",
          "name": "",
          "type": "bool"
        }
      ],
      "stateMutability": "view",
      "type": "function"
    },
    {
      "inputs": [],
      "name": "name",
      "outputs": [
        {
          "internalType": "string",
          "name": "",
          "type": "string"
        }
      ],
      "stateMutability": "view",
      "type": "function"
    },
    {
      "inputs": [
        {
          "internalType": "uint256",
          "name": "tokenId",
          "type": "uint256"
        }
      ],
      "name": "ownerOf",
      "outputs": [
        {
          "internalType": "address",
          "name": "",
          "type": "address"
        }
      ],
      "stateMutability": "view",
      "type": "function"
    },
    {
      "inputs": [
        {
          "internalType": "address",
          "name": "from",
          "type": "address"
        },
        {
          "internalType": "address",
          "name": "to",
          "type": "address"
        },
        {
          "internalType": "uint256",
          "name": "tokenId",
          "type": "uint256"
        }
      ],
      "name": "safeTransferFrom",
      "outputs": [],
      "stateMutability": "nonpayable",
      "type": "function"
    },
    {
      "inputs": [
        {
          "internalType": "address",
          "name": "from",
          "type": "address"
        },
        {
          "internalType": "address",
          "name": "to",
          "type": "address"
        },
        {
          "internalType": "uint256",
          "name": "tokenId",
          "type": "uint256"
        },
        {
          "internalType": "bytes",
          "name": "_data",
          "type": "bytes"
        }
      ],
      "name": "safeTransferFrom",
      "outputs": [],
      "stateMutability": "nonpayable",
      "type": "function"
    },
    {
      "inputs": [
        {
          "internalType": "address",
          "name": "operator",
          "type": "address"
        },
        {
          "internalType": "bool",
          "name": "approved",
          "type": "bool"
        }
      ],
      "name": "setApprovalForAll",
      "outputs": [],
      "stateMutability": "nonpayable",
      "type": "function"
    },
    {
      "inputs": [
        {
          "internalType": "bytes4",
          "name": "interfaceId",
          "type": "bytes4"
        }
      ],
      "name": "supportsInterface",
      "outputs": [
        {
          "internalType": "bool",
          "name": "",
          "type": "bool"
        }
      ],
      "stateMutability": "view",
      "type": "function"
    },
    {
      "inputs": [],
      "name": "symbol",
      "outputs": [
        {
          "internalType": "string",
          "name": "",
          "type": "string"
        }
      ],
      "stateMutability": "view",
      "type": "function"
    },
    {
      "inputs": [
        {
          "internalType": "uint256",
          "name": "tokenId",
          "type": "uint256"
        }
      ],
      "name": "tokenURI",
      "outputs": [
        {
          "internalType": "string",
          "name": "",
          "type": "string"
        }
      ],
      "stateMutability": "view",
      "type": "function"
    },
    {
      "inputs": [
        {
          "internalType": "address",
          "name": "from",
          "type": "address"
        },
        {
          "internalType": "address",
          "name": "to",
          "type": "address"
        },
        {
          "internalType": "uint256",
          "name": "tokenId",
          "type": "uint256"
        }
      ],
      "name": "transferFrom",
      "outputs": [],
      "stateMutability": "nonpayable",
      "type": "function"
    },
    {
      "inputs": [
        {
          "internalType": "string",
          "name": "_color",
          "type": "string"
        }
      ],
      "name": "mint",
      "outputs": [],
      "stateMutability": "nonpayable",
      "type": "function"
    }
  ],
  "bytecode": "0x60806040523480156200001157600080fd5b506040518060400160405280600581526020017f436f6c6f720000000000000000000000000000000000000000000000000000008152506040518060400160405280600581526020017f434f4c4f52000000000000000000000000000000000000000000000000000000815250816000908051906020019062000096929190620000b8565b508060019080519060200190620000af929190620000b8565b505050620001cd565b828054620000c69062000168565b90600052602060002090601f016020900481019282620000ea576000855562000136565b82601f106200010557805160ff191683800117855562000136565b8280016001018555821562000136579182015b828111156200013557825182559160200191906001019062000118565b5b50905062000145919062000149565b5090565b5b80821115620001645760008160009055506001016200014a565b5090565b600060028204905060018216806200018157607f821691505b602082108114156200019857620001976200019e565b5b50919050565b7f4e487b7100000000000000000000000000000000000000000000000000000000600052602260045260246000fd5b6129f580620001dd6000396000f3fe608060405234801561001057600080fd5b50600436106100f55760003560e01c806370a0823111610097578063bd11f69d11610066578063bd11f69d14610282578063c87b56dd146102b2578063d85d3d27146102e2578063e985e9c5146102fe576100f5565b806370a08231146101fc57806395d89b411461022c578063a22cb4651461024a578063b88d4fde14610266576100f5565b8063095ea7b3116100d3578063095ea7b31461017857806323b872dd1461019457806342842e0e146101b05780636352211e146101cc576100f5565b806301ffc9a7146100fa57806306fdde031461012a578063081812fc14610148575b600080fd5b610114600480360381019061010f9190611b17565b61032e565b6040516101219190611f43565b60405180910390f35b610132610410565b60405161013f9190611f5e565b60405180910390f35b610162600480360381019061015d9190611bba565b6104a2565b60405161016f9190611edc565b60405180910390f35b610192600480360381019061018d9190611ad7565b610527565b005b6101ae60048036038101906101a991906119c1565b61063f565b005b6101ca60048036038101906101c591906119c1565b61069f565b005b6101e660048036038101906101e19190611bba565b6106bf565b6040516101f39190611edc565b60405180910390f35b61021660048036038101906102119190611954565b610771565b6040516102239190612140565b60405180910390f35b610234610829565b6040516102419190611f5e565b60405180910390f35b610264600480360381019061025f9190611a97565b6108bb565b005b610280600480360381019061027b9190611a14565b610a3c565b005b61029c60048036038101906102979190611bba565b610a9e565b6040516102a99190611f5e565b60405180910390f35b6102cc60048036038101906102c79190611bba565b610b4a565b6040516102d99190611f5e565b60405180910390f35b6102fc60048036038101906102f79190611b71565b610bf1565b005b61031860048036038101906103139190611981565b610cb2565b6040516103259190611f43565b60405180910390f35b60007f80ac58cd000000000000000000000000000000000000000000000000000000007bffffffffffffffffffffffffffffffffffffffffffffffffffffffff1916827bffffffffffffffffffffffffffffffffffffffffffffffffffffffff191614806103f957507f5b5e139f000000000000000000000000000000000000000000000000000000007bffffffffffffffffffffffffffffffffffffffffffffffffffffffff1916827bffffffffffffffffffffffffffffffffffffffffffffffffffffffff1916145b80610409575061040882610d46565b5b9050919050565b60606000805461041f90612396565b80601f016020809104026020016040519081016040528092919081815260200182805461044b90612396565b80156104985780601f1061046d57610100808354040283529160200191610498565b820191906000526020600020905b81548152906001019060200180831161047b57829003601f168201915b5050505050905090565b60006104ad82610db0565b6104ec576040517f08c379a00000000000000000000000000000000000000000000000000000000081526004016104e3906120a0565b60405180910390fd5b6004600083815260200190815260200160002060009054906101000a900473ffffffffffffffffffffffffffffffffffffffff169050919050565b6000610532826106bf565b90508073ffffffffffffffffffffffffffffffffffffffff168373ffffffffffffffffffffffffffffffffffffffff1614156105a3576040517f08c379a000000000000000000000000000000000000000000000000000000000815260040161059a90612100565b60405180910390fd5b8073ffffffffffffffffffffffffffffffffffffffff166105c2610e1c565b73ffffffffffffffffffffffffffffffffffffffff1614806105f157506105f0816105eb610e1c565b610cb2565b5b610630576040517f08c379a000000000000000000000000000000000000000000000000000000000815260040161062790612020565b60405180910390fd5b61063a8383610e24565b505050565b61065061064a610e1c565b82610edd565b61068f576040517f08c379a000000000000000000000000000000000000000000000000000000000815260040161068690612120565b60405180910390fd5b61069a838383610fbb565b505050565b6106ba83838360405180602001604052806000815250610a3c565b505050565b6000806002600084815260200190815260200160002060009054906101000a900473ffffffffffffffffffffffffffffffffffffffff169050600073ffffffffffffffffffffffffffffffffffffffff168173ffffffffffffffffffffffffffffffffffffffff161415610768576040517f08c379a000000000000000000000000000000000000000000000000000000000815260040161075f90612060565b60405180910390fd5b80915050919050565b60008073ffffffffffffffffffffffffffffffffffffffff168273ffffffffffffffffffffffffffffffffffffffff1614156107e2576040517f08c379a00000000000000000000000000000000000000000000000000000000081526004016107d990612040565b60405180910390fd5b600360008373ffffffffffffffffffffffffffffffffffffffff1673ffffffffffffffffffffffffffffffffffffffff168152602001908152602001600020549050919050565b60606001805461083890612396565b80601f016020809104026020016040519081016040528092919081815260200182805461086490612396565b80156108b15780601f10610886576101008083540402835291602001916108b1565b820191906000526020600020905b81548152906001019060200180831161089457829003601f168201915b5050505050905090565b6108c3610e1c565b73ffffffffffffffffffffffffffffffffffffffff168273ffffffffffffffffffffffffffffffffffffffff161415610931576040517f08c379a000000000000000000000000000000000000000000000000000000000815260040161092890611fe0565b60405180910390fd5b806005600061093e610e1c565b73ffffffffffffffffffffffffffffffffffffffff1673ffffffffffffffffffffffffffffffffffffffff16815260200190815260200160002060008473ffffffffffffffffffffffffffffffffffffffff1673ffffffffffffffffffffffffffffffffffffffff16815260200190815260200160002060006101000a81548160ff0219169083151502179055508173ffffffffffffffffffffffffffffffffffffffff166109eb610e1c565b73ffffffffffffffffffffffffffffffffffffffff167f17307eab39ab6107e8899845ad3d59bd9653f200f220920489ca2b5937696c3183604051610a309190611f43565b60405180910390a35050565b610a4d610a47610e1c565b83610edd565b610a8c576040517f08c379a0000000000000000000000000000000000000000000000000000000008152600401610a8390612120565b60405180910390fd5b610a9884848484611217565b50505050565b60068181548110610aae57600080fd5b906000526020600020016000915090508054610ac990612396565b80601f0160208091040260200160405190810160405280929190818152602001828054610af590612396565b8015610b425780601f10610b1757610100808354040283529160200191610b42565b820191906000526020600020905b815481529060010190602001808311610b2557829003601f168201915b505050505081565b6060610b5582610db0565b610b94576040517f08c379a0000000000000000000000000000000000000000000000000000000008152600401610b8b906120e0565b60405180910390fd5b6000610b9e611273565b90506000815111610bbe5760405180602001604052806000815250610be9565b80610bc88461128a565b604051602001610bd9929190611eb8565b6040516020818303038152906040525b915050919050565b600781604051610c019190611ea1565b908152602001604051809103902060009054906101000a900460ff1615610c2757600080fd5b600681908060018154018082558091505060019003906000526020600020016000909190919091509080519060200190610c62929190611768565b5060006006805490509050610c7733826113eb565b6001600783604051610c899190611ea1565b908152602001604051809103902060006101000a81548160ff0219169083151502179055505050565b6000600560008473ffffffffffffffffffffffffffffffffffffffff1673ffffffffffffffffffffffffffffffffffffffff16815260200190815260200160002060008373ffffffffffffffffffffffffffffffffffffffff1673ffffffffffffffffffffffffffffffffffffffff16815260200190815260200160002060009054906101000a900460ff16905092915050565b60007f01ffc9a7000000000000000000000000000000000000000000000000000000007bffffffffffffffffffffffffffffffffffffffffffffffffffffffff1916827bffffffffffffffffffffffffffffffffffffffffffffffffffffffff1916149050919050565b60008073ffffffffffffffffffffffffffffffffffffffff166002600084815260200190815260200160002060009054906101000a900473ffffffffffffffffffffffffffffffffffffffff1673ffffffffffffffffffffffffffffffffffffffff1614159050919050565b600033905090565b816004600083815260200190815260200160002060006101000a81548173ffffffffffffffffffffffffffffffffffffffff021916908373ffffffffffffffffffffffffffffffffffffffff160217905550808273ffffffffffffffffffffffffffffffffffffffff16610e97836106bf565b73ffffffffffffffffffffffffffffffffffffffff167f8c5be1e5ebec7d5bd14f71427d1e84f3dd0314c0f7b2291e5b200ac8c7c3b92560405160405180910390a45050565b6000610ee882610db0565b610f27576040517f08c379a0000000000000000000000000000000000000000000000000000000008152600401610f1e90612000565b60405180910390fd5b6000610f32836106bf565b90508073ffffffffffffffffffffffffffffffffffffffff168473ffffffffffffffffffffffffffffffffffffffff161480610fa157508373ffffffffffffffffffffffffffffffffffffffff16610f89846104a2565b73ffffffffffffffffffffffffffffffffffffffff16145b80610fb25750610fb18185610cb2565b5b91505092915050565b8273ffffffffffffffffffffffffffffffffffffffff16610fdb826106bf565b73ffffffffffffffffffffffffffffffffffffffff1614611031576040517f08c379a0000000000000000000000000000000000000000000000000000000008152600401611028906120c0565b60405180910390fd5b600073ffffffffffffffffffffffffffffffffffffffff168273ffffffffffffffffffffffffffffffffffffffff1614156110a1576040517f08c379a000000000000000000000000000000000000000000000000000000000815260040161109890611fc0565b60405180910390fd5b6110ac8383836115b9565b6110b7600082610e24565b6001600360008573ffffffffffffffffffffffffffffffffffffffff1673ffffffffffffffffffffffffffffffffffffffff168152602001908152602001600020600082825461110791906122ac565b925050819055506001600360008473ffffffffffffffffffffffffffffffffffffffff1673ffffffffffffffffffffffffffffffffffffffff168152602001908152602001600020600082825461115e9190612225565b92505081905550816002600083815260200190815260200160002060006101000a81548173ffffffffffffffffffffffffffffffffffffffff021916908373ffffffffffffffffffffffffffffffffffffffff160217905550808273ffffffffffffffffffffffffffffffffffffffff168473ffffffffffffffffffffffffffffffffffffffff167fddf252ad1be2c89b69c2b068fc378daa952ba7f163c4a11628f55a4df523b3ef60405160405180910390a4505050565b611222848484610fbb565b61122e848484846115be565b61126d576040517f08c379a000000000000000000000000000000000000000000000000000000000815260040161126490611f80565b60405180910390fd5b50505050565b606060405180602001604052806000815250905090565b606060008214156112d2576040518060400160405280600181526020017f300000000000000000000000000000000000000000000000000000000000000081525090506113e6565b600082905060005b600082146113045780806112ed906123f9565b915050600a826112fd919061227b565b91506112da565b60008167ffffffffffffffff8111156113205761131f61252f565b5b6040519080825280601f01601f1916602001820160405280156113525781602001600182028036833780820191505090505b5090505b600085146113df5760018261136b91906122ac565b9150600a8561137a9190612442565b60306113869190612225565b60f81b81838151811061139c5761139b612500565b5b60200101907effffffffffffffffffffffffffffffffffffffffffffffffffffffffffffff1916908160001a905350600a856113d8919061227b565b9450611356565b8093505050505b919050565b600073ffffffffffffffffffffffffffffffffffffffff168273ffffffffffffffffffffffffffffffffffffffff16141561145b576040517f08c379a000000000000000000000000000000000000000000000000000000000815260040161145290612080565b60405180910390fd5b61146481610db0565b156114a4576040517f08c379a000000000000000000000000000000000000000000000000000000000815260040161149b90611fa0565b60405180910390fd5b6114b0600083836115b9565b6001600360008473ffffffffffffffffffffffffffffffffffffffff1673ffffffffffffffffffffffffffffffffffffffff16815260200190815260200160002060008282546115009190612225565b92505081905550816002600083815260200190815260200160002060006101000a81548173ffffffffffffffffffffffffffffffffffffffff021916908373ffffffffffffffffffffffffffffffffffffffff160217905550808273ffffffffffffffffffffffffffffffffffffffff16600073ffffffffffffffffffffffffffffffffffffffff167fddf252ad1be2c89b69c2b068fc378daa952ba7f163c4a11628f55a4df523b3ef60405160405180910390a45050565b505050565b60006115df8473ffffffffffffffffffffffffffffffffffffffff16611755565b15611748578373ffffffffffffffffffffffffffffffffffffffff1663150b7a02611608610e1c565b8786866040518563ffffffff1660e01b815260040161162a9493929190611ef7565b602060405180830381600087803b15801561164457600080fd5b505af192505050801561167557506040513d601f19601f820116820180604052508101906116729190611b44565b60015b6116f8573d80600081146116a5576040519150601f19603f3d011682016040523d82523d6000602084013e6116aa565b606091505b506000815114156116f0576040517f08c379a00000000000000000000000000000000000000000000000000000000081526004016116e790611f80565b60405180910390fd5b805181602001fd5b63150b7a0260e01b7bffffffffffffffffffffffffffffffffffffffffffffffffffffffff1916817bffffffffffffffffffffffffffffffffffffffffffffffffffffffff19161491505061174d565b600190505b949350505050565b600080823b905060008111915050919050565b82805461177490612396565b90600052602060002090601f01602090048101928261179657600085556117dd565b82601f106117af57805160ff19168380011785556117dd565b828001600101855582156117dd579182015b828111156117dc5782518255916020019190600101906117c1565b5b5090506117ea91906117ee565b5090565b5b808211156118075760008160009055506001016117ef565b5090565b600061181e61181984612180565b61215b565b90508281526020810184848401111561183a57611839612563565b5b611845848285612354565b509392505050565b600061186061185b846121b1565b61215b565b90508281526020810184848401111561187c5761187b612563565b5b611887848285612354565b509392505050565b60008135905061189e81612963565b92915050565b6000813590506118b38161297a565b92915050565b6000813590506118c881612991565b92915050565b6000815190506118dd81612991565b92915050565b600082601f8301126118f8576118f761255e565b5b813561190884826020860161180b565b91505092915050565b600082601f8301126119265761192561255e565b5b813561193684826020860161184d565b91505092915050565b60008135905061194e816129a8565b92915050565b60006020828403121561196a5761196961256d565b5b60006119788482850161188f565b91505092915050565b600080604083850312156119985761199761256d565b5b60006119a68582860161188f565b92505060206119b78582860161188f565b9150509250929050565b6000806000606084860312156119da576119d961256d565b5b60006119e88682870161188f565b93505060206119f98682870161188f565b9250506040611a0a8682870161193f565b9150509250925092565b60008060008060808587031215611a2e57611a2d61256d565b5b6000611a3c8782880161188f565b9450506020611a4d8782880161188f565b9350506040611a5e8782880161193f565b925050606085013567ffffffffffffffff811115611a7f57611a7e612568565b5b611a8b878288016118e3565b91505092959194509250565b60008060408385031215611aae57611aad61256d565b5b6000611abc8582860161188f565b9250506020611acd858286016118a4565b9150509250929050565b60008060408385031215611aee57611aed61256d565b5b6000611afc8582860161188f565b9250506020611b0d8582860161193f565b9150509250929050565b600060208284031215611b2d57611b2c61256d565b5b6000611b3b848285016118b9565b91505092915050565b600060208284031215611b5a57611b5961256d565b5b6000611b68848285016118ce565b91505092915050565b600060208284031215611b8757611b8661256d565b5b600082013567ffffffffffffffff811115611ba557611ba4612568565b5b611bb184828501611911565b91505092915050565b600060208284031215611bd057611bcf61256d565b5b6000611bde8482850161193f565b91505092915050565b611bf0816122e0565b82525050565b611bff816122f2565b82525050565b6000611c10826121e2565b611c1a81856121f8565b9350611c2a818560208601612363565b611c3381612572565b840191505092915050565b6000611c49826121ed565b611c538185612209565b9350611c63818560208601612363565b611c6c81612572565b840191505092915050565b6000611c82826121ed565b611c8c818561221a565b9350611c9c818560208601612363565b80840191505092915050565b6000611cb5603283612209565b9150611cc082612583565b604082019050919050565b6000611cd8601c83612209565b9150611ce3826125d2565b602082019050919050565b6000611cfb602483612209565b9150611d06826125fb565b604082019050919050565b6000611d1e601983612209565b9150611d298261264a565b602082019050919050565b6000611d41602c83612209565b9150611d4c82612673565b604082019050919050565b6000611d64603883612209565b9150611d6f826126c2565b604082019050919050565b6000611d87602a83612209565b9150611d9282612711565b604082019050919050565b6000611daa602983612209565b9150611db582612760565b604082019050919050565b6000611dcd602083612209565b9150611dd8826127af565b602082019050919050565b6000611df0602c83612209565b9150611dfb826127d8565b604082019050919050565b6000611e13602983612209565b9150611e1e82612827565b604082019050919050565b6000611e36602f83612209565b9150611e4182612876565b604082019050919050565b6000611e59602183612209565b9150611e64826128c5565b604082019050919050565b6000611e7c603183612209565b9150611e8782612914565b604082019050919050565b611e9b8161234a565b82525050565b6000611ead8284611c77565b915081905092915050565b6000611ec48285611c77565b9150611ed08284611c77565b91508190509392505050565b6000602082019050611ef16000830184611be7565b92915050565b6000608082019050611f0c6000830187611be7565b611f196020830186611be7565b611f266040830185611e92565b8181036060830152611f388184611c05565b905095945050505050565b6000602082019050611f586000830184611bf6565b92915050565b60006020820190508181036000830152611f788184611c3e565b905092915050565b60006020820190508181036000830152611f9981611ca8565b9050919050565b60006020820190508181036000830152611fb981611ccb565b9050919050565b60006020820190508181036000830152611fd981611cee565b9050919050565b60006020820190508181036000830152611ff981611d11565b9050919050565b6000602082019050818103600083015261201981611d34565b9050919050565b6000602082019050818103600083015261203981611d57565b9050919050565b6000602082019050818103600083015261205981611d7a565b9050919050565b6000602082019050818103600083015261207981611d9d565b9050919050565b6000602082019050818103600083015261209981611dc0565b9050919050565b600060208201905081810360008301526120b981611de3565b9050919050565b600060208201905081810360008301526120d981611e06565b9050919050565b600060208201905081810360008301526120f981611e29565b9050919050565b6000602082019050818103600083015261211981611e4c565b9050919050565b6000602082019050818103600083015261213981611e6f565b9050919050565b60006020820190506121556000830184611e92565b92915050565b6000612165612176565b905061217182826123c8565b919050565b6000604051905090565b600067ffffffffffffffff82111561219b5761219a61252f565b5b6121a482612572565b9050602081019050919050565b600067ffffffffffffffff8211156121cc576121cb61252f565b5b6121d582612572565b9050602081019050919050565b600081519050919050565b600081519050919050565b600082825260208201905092915050565b600082825260208201905092915050565b600081905092915050565b60006122308261234a565b915061223b8361234a565b9250827fffffffffffffffffffffffffffffffffffffffffffffffffffffffffffffffff038211156122705761226f612473565b5b828201905092915050565b60006122868261234a565b91506122918361234a565b9250826122a1576122a06124a2565b5b828204905092915050565b60006122b78261234a565b91506122c28361234a565b9250828210156122d5576122d4612473565b5b828203905092915050565b60006122eb8261232a565b9050919050565b60008115159050919050565b60007fffffffff0000000000000000000000000000000000000000000000000000000082169050919050565b600073ffffffffffffffffffffffffffffffffffffffff82169050919050565b6000819050919050565b82818337600083830152505050565b60005b83811015612381578082015181840152602081019050612366565b83811115612390576000848401525b50505050565b600060028204905060018216806123ae57607f821691505b602082108114156123c2576123c16124d1565b5b50919050565b6123d182612572565b810181811067ffffffffffffffff821117156123f0576123ef61252f565b5b80604052505050565b60006124048261234a565b91507fffffffffffffffffffffffffffffffffffffffffffffffffffffffffffffffff82141561243757612436612473565b5b600182019050919050565b600061244d8261234a565b91506124588361234a565b925082612468576124676124a2565b5b828206905092915050565b7f4e487b7100000000000000000000000000000000000000000000000000000000600052601160045260246000fd5b7f4e487b7100000000000000000000000000000000000000000000000000000000600052601260045260246000fd5b7f4e487b7100000000000000000000000000000000000000000000000000000000600052602260045260246000fd5b7f4e487b7100000000000000000000000000000000000000000000000000000000600052603260045260246000fd5b7f4e487b7100000000000000000000000000000000000000000000000000000000600052604160045260246000fd5b600080fd5b600080fd5b600080fd5b600080fd5b6000601f19601f8301169050919050565b7f4552433732313a207472616e7366657220746f206e6f6e20455243373231526560008201527f63656976657220696d706c656d656e7465720000000000000000000000000000602082015250565b7f4552433732313a20746f6b656e20616c7265616479206d696e74656400000000600082015250565b7f4552433732313a207472616e7366657220746f20746865207a65726f2061646460008201527f7265737300000000000000000000000000000000000000000000000000000000602082015250565b7f4552433732313a20617070726f766520746f2063616c6c657200000000000000600082015250565b7f4552433732313a206f70657261746f7220717565727920666f72206e6f6e657860008201527f697374656e7420746f6b656e0000000000000000000000000000000000000000602082015250565b7f4552433732313a20617070726f76652063616c6c6572206973206e6f74206f7760008201527f6e6572206e6f7220617070726f76656420666f7220616c6c0000000000000000602082015250565b7f4552433732313a2062616c616e636520717565727920666f7220746865207a6560008201527f726f206164647265737300000000000000000000000000000000000000000000602082015250565b7f4552433732313a206f776e657220717565727920666f72206e6f6e657869737460008201527f656e7420746f6b656e0000000000000000000000000000000000000000000000602082015250565b7f4552433732313a206d696e7420746f20746865207a65726f2061646472657373600082015250565b7f4552433732313a20617070726f76656420717565727920666f72206e6f6e657860008201527f697374656e7420746f6b656e0000000000000000000000000000000000000000602082015250565b7f4552433732313a207472616e73666572206f6620746f6b656e2074686174206960008201527f73206e6f74206f776e0000000000000000000000000000000000000000000000602082015250565b7f4552433732314d657461646174613a2055524920717565727920666f72206e6f60008201527f6e6578697374656e7420746f6b656e0000000000000000000000000000000000602082015250565b7f4552433732313a20617070726f76616c20746f2063757272656e74206f776e6560008201527f7200000000000000000000000000000000000000000000000000000000000000602082015250565b7f4552433732313a207472616e736665722063616c6c6572206973206e6f74206f60008201527f776e6572206e6f7220617070726f766564000000000000000000000000000000602082015250565b61296c816122e0565b811461297757600080fd5b50565b612983816122f2565b811461298e57600080fd5b50565b61299a816122fe565b81146129a557600080fd5b50565b6129b18161234a565b81146129bc57600080fd5b5056fea2646970667358221220e9488697849d95c4c19ab7a7f9523620f9590850803df3c1fa9ab80f993cb6b964736f6c63430008070033",
  "immutableReferences": {},
  "source": "pragma solidity ^0.8.0;\r\n\r\nimport \"./ERC721.sol\";\r\n\r\ncontract Color is ERC721 {\r\n    string[] public colors;\r\n    mapping(string => bool) _colorExists;\r\n\r\n    constructor() ERC721(\"Color\", \"COLOR\") public {\r\n    }\r\n\r\n    function mint(string memory _color) public {//Valjalo bi da bude restricted na admina npr\r\n        // Require unique color\r\n        require(!_colorExists[_color]);\r\n\r\n        colors.push(_color);\r\n        uint _id = colors.length;\r\n        _mint(msg.sender, _id);\r\n        _colorExists[_color] = true;\r\n    }\r\n}",
  "sourcePath": "C:/Users/WIN 10/WebstormProjects/Starter-pack-ColorsNFT/src/contracts/Color.sol",
  "compiler": {
    "name": "solc",
    "version": "0.8.7+commit.e28d00a7.Emscripten.clang"
  },
  "schemaVersion": "3.4.1",
  "updatedAt": "2021-09-24T20:45:34.541Z",
  "devdoc": {
    "kind": "dev",
    "methods": {
      "approve(address,uint256)": {
        "details": "See {IERC721-approve}."
      },
      "balanceOf(address)": {
        "details": "See {IERC721-balanceOf}."
      },
      "getApproved(uint256)": {
        "details": "See {IERC721-getApproved}."
      },
      "isApprovedForAll(address,address)": {
        "details": "See {IERC721-isApprovedForAll}."
      },
      "name()": {
        "details": "See {IERC721Metadata-name}."
      },
      "ownerOf(uint256)": {
        "details": "See {IERC721-ownerOf}."
      },
      "safeTransferFrom(address,address,uint256)": {
        "details": "See {IERC721-safeTransferFrom}."
      },
      "safeTransferFrom(address,address,uint256,bytes)": {
        "details": "See {IERC721-safeTransferFrom}."
      },
      "setApprovalForAll(address,bool)": {
        "details": "See {IERC721-setApprovalForAll}."
      },
      "supportsInterface(bytes4)": {
        "details": "See {IERC165-supportsInterface}."
      },
      "symbol()": {
        "details": "See {IERC721Metadata-symbol}."
      },
      "tokenURI(uint256)": {
        "details": "See {IERC721Metadata-tokenURI}."
      },
      "transferFrom(address,address,uint256)": {
        "details": "See {IERC721-transferFrom}."
      }
    },
    "version": 1
  },
  "userdoc": {
    "kind": "user",
    "methods": {},
    "version": 1
  }
}