{
  "contractName": "WakandaContract",
  "abi": [
    {
      "inputs": [],
      "stateMutability": "payable",
      "type": "constructor",
      "payable": true
    },
    {
      "anonymous": false,
      "inputs": [
        {
          "indexed": true,
          "internalType": "uint256",
          "name": "_candidateId",
          "type": "uint256"
        }
      ],
      "name": "NewChallenger",
      "type": "event"
    },
    {
      "anonymous": false,
      "inputs": [
        {
          "indexed": false,
          "internalType": "address",
          "name": "_voter",
          "type": "address"
        }
      ],
      "name": "VoterRegistered",
      "type": "event"
    },
    {
      "anonymous": false,
      "inputs": [
        {
          "indexed": true,
          "internalType": "uint256",
          "name": "_candidateId",
          "type": "uint256"
        }
      ],
      "name": "votedEvent",
      "type": "event"
    },
    {
      "inputs": [
        {
          "internalType": "uint256",
          "name": "",
          "type": "uint256"
        }
      ],
      "name": "candidates",
      "outputs": [
        {
          "internalType": "uint256",
          "name": "id",
          "type": "uint256"
        },
        {
          "internalType": "string",
          "name": "name",
          "type": "string"
        },
        {
          "internalType": "string",
          "name": "age",
          "type": "string"
        },
        {
          "internalType": "string",
          "name": "cult",
          "type": "string"
        },
        {
          "internalType": "uint256",
          "name": "voteCount",
          "type": "uint256"
        }
      ],
      "stateMutability": "view",
      "type": "function",
      "constant": true
    },
    {
      "inputs": [],
      "name": "candidatesCount",
      "outputs": [
        {
          "internalType": "uint256",
          "name": "",
          "type": "uint256"
        }
      ],
      "stateMutability": "view",
      "type": "function",
      "constant": true
    },
    {
      "inputs": [
        {
          "internalType": "uint256",
          "name": "",
          "type": "uint256"
        }
      ],
      "name": "challengers",
      "outputs": [
        {
          "internalType": "bool",
          "name": "",
          "type": "bool"
        }
      ],
      "stateMutability": "view",
      "type": "function",
      "constant": true
    },
    {
      "inputs": [
        {
          "internalType": "address",
          "name": "",
          "type": "address"
        }
      ],
      "name": "registeredVoter",
      "outputs": [
        {
          "internalType": "bool",
          "name": "",
          "type": "bool"
        }
      ],
      "stateMutability": "view",
      "type": "function",
      "constant": true
    },
    {
      "inputs": [
        {
          "internalType": "uint256",
          "name": "",
          "type": "uint256"
        }
      ],
      "name": "top3",
      "outputs": [
        {
          "internalType": "uint256",
          "name": "id",
          "type": "uint256"
        },
        {
          "internalType": "string",
          "name": "name",
          "type": "string"
        },
        {
          "internalType": "string",
          "name": "age",
          "type": "string"
        },
        {
          "internalType": "string",
          "name": "cult",
          "type": "string"
        },
        {
          "internalType": "uint256",
          "name": "voteCount",
          "type": "uint256"
        }
      ],
      "stateMutability": "view",
      "type": "function",
      "constant": true
    },
    {
      "inputs": [
        {
          "internalType": "address",
          "name": "",
          "type": "address"
        }
      ],
      "name": "voters",
      "outputs": [
        {
          "internalType": "bool",
          "name": "hasVoted",
          "type": "bool"
        },
        {
          "internalType": "uint256",
          "name": "candidateId",
          "type": "uint256"
        }
      ],
      "stateMutability": "view",
      "type": "function",
      "constant": true
    },
    {
      "inputs": [
        {
          "internalType": "string",
          "name": "_name",
          "type": "string"
        },
        {
          "internalType": "string",
          "name": "_age",
          "type": "string"
        },
        {
          "internalType": "string",
          "name": "_cult",
          "type": "string"
        }
      ],
      "name": "addCandidate",
      "outputs": [],
      "stateMutability": "nonpayable",
      "type": "function"
    },
    {
      "inputs": [
        {
          "internalType": "uint256",
          "name": "_candidateId",
          "type": "uint256"
        }
      ],
      "name": "vote",
      "outputs": [],
      "stateMutability": "nonpayable",
      "type": "function"
    },
    {
      "inputs": [
        {
          "internalType": "address",
          "name": "_voter",
          "type": "address"
        }
      ],
      "name": "registerVoter",
      "outputs": [],
      "stateMutability": "nonpayable",
      "type": "function"
    },
    {
      "inputs": [],
      "name": "winningCandidates",
      "outputs": [
        {
          "internalType": "string",
          "name": "",
          "type": "string"
        },
        {
          "internalType": "string",
          "name": "",
          "type": "string"
        },
        {
          "internalType": "string",
          "name": "",
          "type": "string"
        }
      ],
      "stateMutability": "nonpayable",
      "type": "function"
    }
  ],
  "bytecode": "0x6080604052336000806101000a81548173ffffffffffffffffffffffffffffffffffffffff021916908373ffffffffffffffffffffffffffffffffffffffff160217905550620000f66040518060400160405280600c81526020017f4f6e657a6120556d6261646900000000000000000000000000000000000000008152506040518060400160405280600281526020017f35360000000000000000000000000000000000000000000000000000000000008152506040518060400160405280601281526020017f576869746520476f72696c6c612043756c740000000000000000000000000000815250620007c460201b60201c565b620001a86040518060400160405280600f81526020017f4b275461736865204b686f7461726500000000000000000000000000000000008152506040518060400160405280600381526020017f61676500000000000000000000000000000000000000000000000000000000008152506040518060400160405280600981526020017f4c696f6e2043756c740000000000000000000000000000000000000000000000815250620007c460201b60201c565b6200025a6040518060400160405280600d81526020017f57274b61737365205a6f6d7675000000000000000000000000000000000000008152506040518060400160405280600281526020017f36370000000000000000000000000000000000000000000000000000000000008152506040518060400160405280600981526020017f4c696f6e2043756c740000000000000000000000000000000000000000000000815250620007c460201b60201c565b6200030c6040518060400160405280600e81526020017f416d776561205468656d62756e750000000000000000000000000000000000008152506040518060400160405280600281526020017f37320000000000000000000000000000000000000000000000000000000000008152506040518060400160405280601281526020017f576869746520476f72696c6c612043756c740000000000000000000000000000815250620007c460201b60201c565b620003be6040518060400160405280600e81526020017f4368275461686e692043686974650000000000000000000000000000000000008152506040518060400160405280600281526020017f33390000000000000000000000000000000000000000000000000000000000008152506040518060400160405280601281526020017f576869746520476f72696c6c612043756c740000000000000000000000000000815250620007c460201b60201c565b620004706040518060400160405280600b81526020017f4d626f73686120546162690000000000000000000000000000000000000000008152506040518060400160405280600281526020017f33310000000000000000000000000000000000000000000000000000000000008152506040518060400160405280600981526020017f4c696f6e2043756c740000000000000000000000000000000000000000000000815250620007c460201b60201c565b620005226040518060400160405280600f81526020017f4b77616e74616b2042757a616b686900000000000000000000000000000000008152506040518060400160405280600281526020017f36350000000000000000000000000000000000000000000000000000000000008152506040518060400160405280600a81526020017f4879656e6120436c616e00000000000000000000000000000000000000000000815250620007c460201b60201c565b620005d46040518060400160405280600e81526020017f4f6d657275204b686962616e64610000000000000000000000000000000000008152506040518060400160405280600281526020017f34330000000000000000000000000000000000000000000000000000000000008152506040518060400160405280600c81526020017f50616e746865722043756c740000000000000000000000000000000000000000815250620007c460201b60201c565b620006866040518060400160405280600981526020017f4977692054616d766100000000000000000000000000000000000000000000008152506040518060400160405280600281526020017f37320000000000000000000000000000000000000000000000000000000000008152506040518060400160405280600e81526020017f43726f636f64696c652043756c74000000000000000000000000000000000000815250620007c460201b60201c565b620007386040518060400160405280600d81526020017f4a6f64692054617a6564696261000000000000000000000000000000000000008152506040518060400160405280600281526020017f33380000000000000000000000000000000000000000000000000000000000008152506040518060400160405280601281526020017f576869746520476f72696c6c612043756c740000000000000000000000000000815250620007c460201b60201c565b60006004600080815260200190815260200160002060006101000a81548160ff0219169083151502179055506000600460006001815260200190815260200160002060006101000a81548160ff0219169083151502179055506000600460006002815260200190815260200160002060006101000a81548160ff02191690831515021790555062000a32565b60066000815480929190620007d99062000986565b91905055506040518060a00160405280600654815260200184815260200183815260200182815260200160008152506002600060065481526020019081526020016000206000820151816000015560208201518160010190805190602001906200084592919062000896565b5060408201518160020190805190602001906200086492919062000896565b5060608201518160030190805190602001906200088392919062000896565b5060808201518160040155905050505050565b828054620008a49062000950565b90600052602060002090601f016020900481019282620008c8576000855562000914565b82601f10620008e357805160ff191683800117855562000914565b8280016001018555821562000914579182015b8281111562000913578251825591602001919060010190620008f6565b5b50905062000923919062000927565b5090565b5b808211156200094257600081600090555060010162000928565b5090565b6000819050919050565b600060028204905060018216806200096957607f821691505b6020821081141562000980576200097f62000a03565b5b50919050565b6000620009938262000946565b91507fffffffffffffffffffffffffffffffffffffffffffffffffffffffffffffffff821415620009c957620009c8620009d4565b5b600182019050919050565b7f4e487b7100000000000000000000000000000000000000000000000000000000600052601160045260246000fd5b7f4e487b7100000000000000000000000000000000000000000000000000000000600052602260045260246000fd5b612eda8062000a426000396000f3fe608060405234801561001057600080fd5b506004361061009e5760003560e01c806338db6dd31161006657806338db6dd3146101615780636b45ebcb1461017d578063a3ec138d146101ad578063ad71f8dc146101de578063c9bf5b15146101fa5761009e565b80630121b93f146100a35780630cc98147146100bf5780632d35a8a2146100ef5780633477ee2e1461010d578063377968d414610141575b600080fd5b6100bd60048036038101906100b891906127b4565b61022e565b005b6100d960048036038101906100d491906126f4565b611392565b6040516100e691906129a6565b60405180910390f35b6100f76113b2565b6040516101049190612a96565b60405180910390f35b610127600480360381019061012291906127b4565b6113b8565b604051610138959493929190612ab1565b60405180910390f35b610149611586565b604051610158939291906129ea565b60405180910390f35b61017b600480360381019061017691906126f4565b611f11565b005b610197600480360381019061019291906127b4565b612035565b6040516101a491906129a6565b60405180910390f35b6101c760048036038101906101c291906126f4565b612055565b6040516101d59291906129c1565b60405180910390f35b6101f860048036038101906101f3919061271d565b612086565b005b610214600480360381019061020f91906127b4565b612150565b604051610225959493929190612ab1565b60405180910390f35b60001515600360003373ffffffffffffffffffffffffffffffffffffffff1673ffffffffffffffffffffffffffffffffffffffff16815260200190815260200160002060000160009054906101000a900460ff161515146102c4576040517f08c379a00000000000000000000000000000000000000000000000000000000081526004016102bb90612a56565b60405180910390fd5b6000811180156102d657506006548111155b610315576040517f08c379a000000000000000000000000000000000000000000000000000000000815260040161030c90612a36565b60405180910390fd5b6001600360003373ffffffffffffffffffffffffffffffffffffffff1673ffffffffffffffffffffffffffffffffffffffff16815260200190815260200160002060000160006101000a81548160ff02191690831515021790555080600360003373ffffffffffffffffffffffffffffffffffffffff1673ffffffffffffffffffffffffffffffffffffffff168152602001908152602001600020600101819055506002600082815260200190815260200160002060040160008154809291906103de90612d60565b919050555060001515600460006002815260200190815260200160002060009054906101000a900460ff1615151415610c275760001515600460006001815260200190815260200160002060009054906101000a900460ff16151514156106fc57600015156004600080815260200190815260200160002060009054906101000a900460ff161515141561057e5760056002600083815260200190815260200160002090806001815401808255809150506001900390600052602060002090600502016000909190919091506000820154816000015560018201816001019080546104c890612d2e565b6104d3929190612532565b5060028201816002019080546104e890612d2e565b6104f3929190612532565b50600382018160030190805461050890612d2e565b610513929190612532565b5060048201548160040155505060016004600080815260200190815260200160002060006101000a81548160ff021916908315150217905550807f831f5c67af4bbd49cd53baa83b47767227b5a068b6e32c0fe0c9dda1129d39b060405160405180910390a26106f7565b60056000815481106105b9577f4e487b7100000000000000000000000000000000000000000000000000000000600052603260045260246000fd5b9060005260206000209060050201600001546002600083815260200190815260200160002060000154146106f657600560026000838152602001908152602001600020908060018154018082558091505060019003906000526020600020906005020160009091909190915060008201548160000155600182018160010190805461064390612d2e565b61064e929190612532565b50600282018160020190805461066390612d2e565b61066e929190612532565b50600382018160030190805461068390612d2e565b61068e929190612532565b506004820154816004015550506001600460006001815260200190815260200160002060006101000a81548160ff021916908315150217905550807f831f5c67af4bbd49cd53baa83b47767227b5a068b6e32c0fe0c9dda1129d39b060405160405180910390a25b5b610c22565b6005600081548110610737577f4e487b7100000000000000000000000000000000000000000000000000000000600052603260045260246000fd5b906000526020600020906005020160000154600260008381526020019081526020016000206000015414806107cd575060056001815481106107a2577f4e487b7100000000000000000000000000000000000000000000000000000000600052603260045260246000fd5b9060005260206000209060050201600001546002600083815260200190815260200160002060000154145b15610b1257600560008154811061080d577f4e487b7100000000000000000000000000000000000000000000000000000000600052603260045260246000fd5b90600052602060002090600502016004015460026000838152602001908152602001600020600401541115610a395760006005600081548110610879577f4e487b7100000000000000000000000000000000000000000000000000000000600052603260045260246000fd5b90600052602060002090600502016000015490506002600083815260200190815260200160002060056000815481106108db577f4e487b7100000000000000000000000000000000000000000000000000000000600052603260045260246000fd5b906000526020600020906005020160008201548160000155600182018160010190805461090790612d2e565b610912929190612532565b50600282018160020190805461092790612d2e565b610932929190612532565b50600382018160030190805461094790612d2e565b610952929190612532565b50600482015481600401559050506002600082815260200190815260200160002060056001815481106109ae577f4e487b7100000000000000000000000000000000000000000000000000000000600052603260045260246000fd5b90600052602060002090600502016000820154816000015560018201816001019080546109da90612d2e565b6109e5929190612532565b5060028201816002019080546109fa90612d2e565b610a05929190612532565b506003820181600301908054610a1a90612d2e565b610a25929190612532565b506004820154816004015590505050610b0d565b600260008281526020019081526020016000206005600181548110610a87577f4e487b7100000000000000000000000000000000000000000000000000000000600052603260045260246000fd5b9060005260206000209060050201600082015481600001556001820181600101908054610ab390612d2e565b610abe929190612532565b506002820181600201908054610ad390612d2e565b610ade929190612532565b506003820181600301908054610af390612d2e565b610afe929190612532565b50600482015481600401559050505b610c21565b6005600260008381526020019081526020016000209080600181540180825580915050600190039060005260206000209060050201600090919091909150600082015481600001556001820181600101908054610b6e90612d2e565b610b79929190612532565b506002820181600201908054610b8e90612d2e565b610b99929190612532565b506003820181600301908054610bae90612d2e565b610bb9929190612532565b506004820154816004015550506001600460006002815260200190815260200160002060006101000a81548160ff021916908315150217905550807f831f5c67af4bbd49cd53baa83b47767227b5a068b6e32c0fe0c9dda1129d39b060405160405180910390a25b5b611362565b6000600260008381526020019081526020016000206004015490506005600281548110610c7d577f4e487b7100000000000000000000000000000000000000000000000000000000600052603260045260246000fd5b906000526020600020906005020160040154811115611360576005600181548110610cd1577f4e487b7100000000000000000000000000000000000000000000000000000000600052603260045260246000fd5b90600052602060002090600502016004015481111561125e576005600081548110610d25577f4e487b7100000000000000000000000000000000000000000000000000000000600052603260045260246000fd5b9060005260206000209060050201600401548111156110605760006005600081548110610d7b577f4e487b7100000000000000000000000000000000000000000000000000000000600052603260045260246000fd5b9060005260206000209060050201600001549050600260008481526020019081526020016000206005600081548110610ddd577f4e487b7100000000000000000000000000000000000000000000000000000000600052603260045260246000fd5b9060005260206000209060050201600082015481600001556001820181600101908054610e0990612d2e565b610e14929190612532565b506002820181600201908054610e2990612d2e565b610e34929190612532565b506003820181600301908054610e4990612d2e565b610e54929190612532565b506004820154816004015590505060006005600181548110610e9f577f4e487b7100000000000000000000000000000000000000000000000000000000600052603260045260246000fd5b9060005260206000209060050201600001549050600260008381526020019081526020016000206005600181548110610f01577f4e487b7100000000000000000000000000000000000000000000000000000000600052603260045260246000fd5b9060005260206000209060050201600082015481600001556001820181600101908054610f2d90612d2e565b610f38929190612532565b506002820181600201908054610f4d90612d2e565b610f58929190612532565b506003820181600301908054610f6d90612d2e565b610f78929190612532565b5060048201548160040155905050600260008281526020019081526020016000206005600281548110610fd4577f4e487b7100000000000000000000000000000000000000000000000000000000600052603260045260246000fd5b906000526020600020906005020160008201548160000155600182018160010190805461100090612d2e565b61100b929190612532565b50600282018160020190805461102090612d2e565b61102b929190612532565b50600382018160030190805461104090612d2e565b61104b929190612532565b50600482015481600401559050505050611259565b6000600560018154811061109d577f4e487b7100000000000000000000000000000000000000000000000000000000600052603260045260246000fd5b90600052602060002090600502016000015490506002600084815260200190815260200160002060056001815481106110ff577f4e487b7100000000000000000000000000000000000000000000000000000000600052603260045260246000fd5b906000526020600020906005020160008201548160000155600182018160010190805461112b90612d2e565b611136929190612532565b50600282018160020190805461114b90612d2e565b611156929190612532565b50600382018160030190805461116b90612d2e565b611176929190612532565b50600482015481600401559050506002600082815260200190815260200160002060056002815481106111d2577f4e487b7100000000000000000000000000000000000000000000000000000000600052603260045260246000fd5b90600052602060002090600502016000820154816000015560018201816001019080546111fe90612d2e565b611209929190612532565b50600282018160020190805461121e90612d2e565b611229929190612532565b50600382018160030190805461123e90612d2e565b611249929190612532565b5060048201548160040155905050505b61135f565b6002600083815260200190815260200160002060056002815481106112ac577f4e487b7100000000000000000000000000000000000000000000000000000000600052603260045260246000fd5b90600052602060002090600502016000820154816000015560018201816001019080546112d890612d2e565b6112e3929190612532565b5060028201816002019080546112f890612d2e565b611303929190612532565b50600382018160030190805461131890612d2e565b611323929190612532565b5060048201548160040155905050817f831f5c67af4bbd49cd53baa83b47767227b5a068b6e32c0fe0c9dda1129d39b060405160405180910390a25b5b505b807ffff3c900d938d21d0990d786e819f29b8d05c1ef587b462b939609625b684b1660405160405180910390a250565b60016020528060005260406000206000915054906101000a900460ff1681565b60065481565b60026020528060005260406000206000915090508060000154908060010180546113e190612d2e565b80601f016020809104026020016040519081016040528092919081815260200182805461140d90612d2e565b801561145a5780601f1061142f5761010080835404028352916020019161145a565b820191906000526020600020905b81548152906001019060200180831161143d57829003601f168201915b50505050509080600201805461146f90612d2e565b80601f016020809104026020016040519081016040528092919081815260200182805461149b90612d2e565b80156114e85780601f106114bd576101008083540402835291602001916114e8565b820191906000526020600020905b8154815290600101906020018083116114cb57829003601f168201915b5050505050908060030180546114fd90612d2e565b80601f016020809104026020016040519081016040528092919081815260200182805461152990612d2e565b80156115765780601f1061154b57610100808354040283529160200191611576565b820191906000526020600020905b81548152906001019060200180831161155957829003601f168201915b5050505050908060040154905085565b606080606060001515600460006002815260200190815260200160002060009054906101000a900460ff1615151415611acd5760001515600460006001815260200190815260200160002060009054906101000a900460ff16151514156117e257600015156004600080815260200190815260200160002060009054906101000a900460ff161515141561164f57604051806020016040528060008152506040518060200160405280600081525060405180602001604052806000815250925092509250611f0c565b6117b7600560008154811061168d577f4e487b7100000000000000000000000000000000000000000000000000000000600052603260045260246000fd5b906000526020600020906005020160010180546116a990612d2e565b80601f01602080910402602001604051908101604052809291908181526020018280546116d590612d2e565b80156117225780601f106116f757610100808354040283529160200191611722565b820191906000526020600020905b81548152906001019060200180831161170557829003601f168201915b50505050506040518060400160405280600981526020017f2c20766f7465733a2000000000000000000000000000000000000000000000008152506117b2600560008154811061179b577f4e487b7100000000000000000000000000000000000000000000000000000000600052603260045260246000fd5b90600052602060002090600502016004015461232e565b612503565b6040518060200160405280600081525060405180602001604052806000815250925092509250611f0c565b61194a6005600081548110611820577f4e487b7100000000000000000000000000000000000000000000000000000000600052603260045260246000fd5b9060005260206000209060050201600101805461183c90612d2e565b80601f016020809104026020016040519081016040528092919081815260200182805461186890612d2e565b80156118b55780601f1061188a576101008083540402835291602001916118b5565b820191906000526020600020905b81548152906001019060200180831161189857829003601f168201915b50505050506040518060400160405280600981526020017f2c20766f7465733a200000000000000000000000000000000000000000000000815250611945600560008154811061192e577f4e487b7100000000000000000000000000000000000000000000000000000000600052603260045260246000fd5b90600052602060002090600502016004015461232e565b612503565b611ab26005600181548110611988577f4e487b7100000000000000000000000000000000000000000000000000000000600052603260045260246000fd5b906000526020600020906005020160010180546119a490612d2e565b80601f01602080910402602001604051908101604052809291908181526020018280546119d090612d2e565b8015611a1d5780601f106119f257610100808354040283529160200191611a1d565b820191906000526020600020905b815481529060010190602001808311611a0057829003601f168201915b50505050506040518060400160405280600981526020017f2c20766f7465733a200000000000000000000000000000000000000000000000815250611aad6005600181548110611a96577f4e487b7100000000000000000000000000000000000000000000000000000000600052603260045260246000fd5b90600052602060002090600502016004015461232e565b612503565b60405180602001604052806000815250925092509250611f0c565b611c356005600081548110611b0b577f4e487b7100000000000000000000000000000000000000000000000000000000600052603260045260246000fd5b90600052602060002090600502016001018054611b2790612d2e565b80601f0160208091040260200160405190810160405280929190818152602001828054611b5390612d2e565b8015611ba05780601f10611b7557610100808354040283529160200191611ba0565b820191906000526020600020905b815481529060010190602001808311611b8357829003601f168201915b50505050506040518060400160405280600981526020017f2c20766f7465733a200000000000000000000000000000000000000000000000815250611c306005600081548110611c19577f4e487b7100000000000000000000000000000000000000000000000000000000600052603260045260246000fd5b90600052602060002090600502016004015461232e565b612503565b611d9d6005600181548110611c73577f4e487b7100000000000000000000000000000000000000000000000000000000600052603260045260246000fd5b90600052602060002090600502016001018054611c8f90612d2e565b80601f0160208091040260200160405190810160405280929190818152602001828054611cbb90612d2e565b8015611d085780601f10611cdd57610100808354040283529160200191611d08565b820191906000526020600020905b815481529060010190602001808311611ceb57829003601f168201915b50505050506040518060400160405280600981526020017f2c20766f7465733a200000000000000000000000000000000000000000000000815250611d986005600181548110611d81577f4e487b7100000000000000000000000000000000000000000000000000000000600052603260045260246000fd5b90600052602060002090600502016004015461232e565b612503565b611f056005600281548110611ddb577f4e487b7100000000000000000000000000000000000000000000000000000000600052603260045260246000fd5b90600052602060002090600502016001018054611df790612d2e565b80601f0160208091040260200160405190810160405280929190818152602001828054611e2390612d2e565b8015611e705780601f10611e4557610100808354040283529160200191611e70565b820191906000526020600020905b815481529060010190602001808311611e5357829003601f168201915b50505050506040518060400160405280600981526020017f2c20766f7465733a200000000000000000000000000000000000000000000000815250611f006005600281548110611ee9577f4e487b7100000000000000000000000000000000000000000000000000000000600052603260045260246000fd5b90600052602060002090600502016004015461232e565b612503565b9250925092505b909192565b60001515600160008373ffffffffffffffffffffffffffffffffffffffff1673ffffffffffffffffffffffffffffffffffffffff16815260200190815260200160002060009054906101000a900460ff16151514611fa4576040517f08c379a0000000000000000000000000000000000000000000000000000000008152600401611f9b90612a76565b60405180910390fd5b60018060008373ffffffffffffffffffffffffffffffffffffffff1673ffffffffffffffffffffffffffffffffffffffff16815260200190815260200160002060006101000a81548160ff0219169083151502179055507fb6be2187d059cc2a55fe29e0e503b566e1e0f8c8780096e185429350acffd3dd8160405161202a919061298b565b60405180910390a150565b60046020528060005260406000206000915054906101000a900460ff1681565b60036020528060005260406000206000915090508060000160009054906101000a900460ff16908060010154905082565b6006600081548092919061209990612d60565b91905055506040518060a00160405280600654815260200184815260200183815260200182815260200160008152506002600060065481526020019081526020016000206000820151816000015560208201518160010190805190602001906121039291906125bf565b5060408201518160020190805190602001906121209291906125bf565b50606082015181600301908051906020019061213d9291906125bf565b5060808201518160040155905050505050565b6005818154811061216057600080fd5b906000526020600020906005020160009150905080600001549080600101805461218990612d2e565b80601f01602080910402602001604051908101604052809291908181526020018280546121b590612d2e565b80156122025780601f106121d757610100808354040283529160200191612202565b820191906000526020600020905b8154815290600101906020018083116121e557829003601f168201915b50505050509080600201805461221790612d2e565b80601f016020809104026020016040519081016040528092919081815260200182805461224390612d2e565b80156122905780601f1061226557610100808354040283529160200191612290565b820191906000526020600020905b81548152906001019060200180831161227357829003601f168201915b5050505050908060030180546122a590612d2e565b80601f01602080910402602001604051908101604052809291908181526020018280546122d190612d2e565b801561231e5780601f106122f35761010080835404028352916020019161231e565b820191906000526020600020905b81548152906001019060200180831161230157829003601f168201915b5050505050908060040154905085565b60606000821415612376576040518060400160405280600181526020017f300000000000000000000000000000000000000000000000000000000000000081525090506124fe565b600082905060005b600082146123a857808061239190612d60565b915050600a826123a19190612bd8565b915061237e565b60008167ffffffffffffffff8111156123ea577f4e487b7100000000000000000000000000000000000000000000000000000000600052604160045260246000fd5b6040519080825280601f01601f19166020018201604052801561241c5781602001600182028036833780820191505090505b50905060008290505b600086146124f65760018161243a9190612c63565b90506000600a808861244c9190612bd8565b6124569190612c09565b876124619190612c63565b603061246d9190612ba1565b905060008160f81b9050808484815181106124b1577f4e487b7100000000000000000000000000000000000000000000000000000000600052603260045260246000fd5b60200101907effffffffffffffffffffffffffffffffffffffffffffffffffffffffffffff1916908160001a905350600a886124ed9190612bd8565b97505050612425565b819450505050505b919050565b606083838360405160200161251a9392919061295a565b60405160208183030381529060405290509392505050565b82805461253e90612d2e565b90600052602060002090601f01602090048101928261256057600085556125ae565b82601f1061257157805485556125ae565b828001600101855582156125ae57600052602060002091601f016020900482015b828111156125ad578254825591600101919060010190612592565b5b5090506125bb9190612645565b5090565b8280546125cb90612d2e565b90600052602060002090601f0160209004810192826125ed5760008555612634565b82601f1061260657805160ff1916838001178555612634565b82800160010185558215612634579182015b82811115612633578251825591602001919060010190612618565b5b5090506126419190612645565b5090565b5b8082111561265e576000816000905550600101612646565b5090565b600061267561267084612b4a565b612b19565b90508281526020810184848401111561268d57600080fd5b612698848285612cec565b509392505050565b6000813590506126af81612e76565b92915050565b600082601f8301126126c657600080fd5b81356126d6848260208601612662565b91505092915050565b6000813590506126ee81612e8d565b92915050565b60006020828403121561270657600080fd5b6000612714848285016126a0565b91505092915050565b60008060006060848603121561273257600080fd5b600084013567ffffffffffffffff81111561274c57600080fd5b612758868287016126b5565b935050602084013567ffffffffffffffff81111561277557600080fd5b612781868287016126b5565b925050604084013567ffffffffffffffff81111561279e57600080fd5b6127aa868287016126b5565b9150509250925092565b6000602082840312156127c657600080fd5b60006127d4848285016126df565b91505092915050565b6127e681612c97565b82525050565b6127f581612ca9565b82525050565b600061280682612b7a565b6128108185612b85565b9350612820818560208601612cfb565b61282981612e65565b840191505092915050565b600061283f82612b7a565b6128498185612b96565b9350612859818560208601612cfb565b80840191505092915050565b6000612872601483612b85565b91507f43616e646964617465206e6f742076616c6964210000000000000000000000006000830152602082019050919050565b60006128b2601483612b85565b91507f566f74657220616c726561647920766f746564210000000000000000000000006000830152602082019050919050565b60006128f2602a83612b85565b91507f57616b616e6461436f6e74726163743a3a20566f74657220616c72656164792060008301527f72656769737465726564000000000000000000000000000000000000000000006020830152604082019050919050565b61295481612cd5565b82525050565b60006129668286612834565b91506129728285612834565b915061297e8284612834565b9150819050949350505050565b60006020820190506129a060008301846127dd565b92915050565b60006020820190506129bb60008301846127ec565b92915050565b60006040820190506129d660008301856127ec565b6129e3602083018461294b565b9392505050565b60006060820190508181036000830152612a0481866127fb565b90508181036020830152612a1881856127fb565b90508181036040830152612a2c81846127fb565b9050949350505050565b60006020820190508181036000830152612a4f81612865565b9050919050565b60006020820190508181036000830152612a6f816128a5565b9050919050565b60006020820190508181036000830152612a8f816128e5565b9050919050565b6000602082019050612aab600083018461294b565b92915050565b600060a082019050612ac6600083018861294b565b8181036020830152612ad881876127fb565b90508181036040830152612aec81866127fb565b90508181036060830152612b0081856127fb565b9050612b0f608083018461294b565b9695505050505050565b6000604051905081810181811067ffffffffffffffff82111715612b4057612b3f612e36565b5b8060405250919050565b600067ffffffffffffffff821115612b6557612b64612e36565b5b601f19601f8301169050602081019050919050565b600081519050919050565b600082825260208201905092915050565b600081905092915050565b6000612bac82612cdf565b9150612bb783612cdf565b92508260ff03821115612bcd57612bcc612da9565b5b828201905092915050565b6000612be382612cd5565b9150612bee83612cd5565b925082612bfe57612bfd612dd8565b5b828204905092915050565b6000612c1482612cd5565b9150612c1f83612cd5565b9250817fffffffffffffffffffffffffffffffffffffffffffffffffffffffffffffffff0483118215151615612c5857612c57612da9565b5b828202905092915050565b6000612c6e82612cd5565b9150612c7983612cd5565b925082821015612c8c57612c8b612da9565b5b828203905092915050565b6000612ca282612cb5565b9050919050565b60008115159050919050565b600073ffffffffffffffffffffffffffffffffffffffff82169050919050565b6000819050919050565b600060ff82169050919050565b82818337600083830152505050565b60005b83811015612d19578082015181840152602081019050612cfe565b83811115612d28576000848401525b50505050565b60006002820490506001821680612d4657607f821691505b60208210811415612d5a57612d59612e07565b5b50919050565b6000612d6b82612cd5565b91507fffffffffffffffffffffffffffffffffffffffffffffffffffffffffffffffff821415612d9e57612d9d612da9565b5b600182019050919050565b7f4e487b7100000000000000000000000000000000000000000000000000000000600052601160045260246000fd5b7f4e487b7100000000000000000000000000000000000000000000000000000000600052601260045260246000fd5b7f4e487b7100000000000000000000000000000000000000000000000000000000600052602260045260246000fd5b7f4e487b7100000000000000000000000000000000000000000000000000000000600052604160045260246000fd5b6000601f19601f8301169050919050565b612e7f81612c97565b8114612e8a57600080fd5b50565b612e9681612cd5565b8114612ea157600080fd5b5056fea264697066735822122056399627ef06a46373e19bbf35643841567c36888805f8da2251e8f37cf1fa1564736f6c63430008000033",
  "immutableReferences": {},
  "source": "pragma solidity >= 0.6.0 <= 0.8.0;\r\n\r\nimport \"@openzeppelin/contracts/token/ERC20/IERC20.sol\";\r\n\r\ncontract WakandaContract {\r\n\r\n    address private owner;\r\n\r\n    struct Candidate {\r\n        uint id;\r\n        string name;\r\n        string age;\r\n        string cult;\r\n        uint voteCount;\r\n    }\r\n\r\n    struct Voter{\r\n        bool hasVoted;\r\n        uint candidateId;\r\n    }\r\n\r\n    mapping(address=>bool) public registeredVoter;\r\n    mapping(uint => Candidate) public candidates;\r\n    mapping(address => Voter) public voters;\r\n\r\n    mapping(uint => bool) public challengers;\r\n\r\n    Candidate[] public top3;\r\n\r\n\r\n    uint public candidatesCount;\r\n\r\n\r\n    event VoterRegistered(address _voter);\r\n    event votedEvent (uint indexed _candidateId);\r\n    event NewChallenger(uint indexed _candidateId);\r\n\r\n    function addCandidate (string memory _name, string memory _age, string memory _cult) public {\r\n        candidatesCount++;\r\n        candidates[candidatesCount] = Candidate(candidatesCount, _name, _age, _cult, 0);\r\n    }\r\n\r\n    constructor() payable{\r\n        owner = msg.sender;\r\n\r\n        addCandidate(\"Oneza Umbadi\", \"56\", \"White Gorilla Cult\");\r\n        addCandidate(\"K'Tashe Khotare\", \"age\", \"Lion Cult\");\r\n        addCandidate(\"W'Kasse Zomvu\", \"67\", \"Lion Cult\");\r\n        addCandidate(\"Amwea Thembunu\", \"72\", \"White Gorilla Cult\");\r\n        addCandidate(\"Ch'Tahni Chite\", \"39\", \"White Gorilla Cult\");\r\n        addCandidate(\"Mbosha Tabi\", \"31\", \"Lion Cult\");\r\n        addCandidate(\"Kwantak Buzakhi\", \"65\", \"Hyena Clan\");\r\n        addCandidate(\"Omeru Khibanda\", \"43\", \"Panther Cult\");\r\n        addCandidate(\"Iwi Tamva\", \"72\", \"Crocodile Cult\");\r\n        addCandidate(\"Jodi Tazediba\", \"38\", \"White Gorilla Cult\");\r\n\r\n        challengers[0] = false;\r\n        challengers[1] = false;\r\n        challengers[2] = false;\r\n    }\r\n\r\n    function vote (uint _candidateId) public {\r\n        // require that they haven't voted before\r\n        require(voters[msg.sender].hasVoted == false, \"Voter already voted!\");\r\n        // require a valid candidate\r\n        require(_candidateId > 0 && _candidateId <= candidatesCount, \"Candidate not valid!\");\r\n\r\n        // record that voter has voted\r\n        voters[msg.sender].hasVoted = true;\r\n        // A Smart Contract that keeps track of who voted for which candidates\r\n        voters[msg.sender].candidateId = _candidateId;\r\n\r\n        // update candidate vote Count\r\n        candidates[_candidateId].voteCount++;\r\n\r\n\r\n        if(challengers[2] == false){ // first three candidates\r\n            if(challengers[1] == false){\r\n                if(challengers[0] == false){\r\n                    top3.push(candidates[_candidateId]);\r\n                    challengers[0] = true;\r\n\r\n                    emit NewChallenger(_candidateId);\r\n                } else {\r\n                    if(candidates[_candidateId].id != top3[0].id){\r\n                        top3.push(candidates[_candidateId]);\r\n                        challengers[1] = true;\r\n\r\n                        emit NewChallenger(_candidateId);\r\n                    }\r\n                }\r\n            } else {\r\n                if(candidates[_candidateId].id == top3[0].id || candidates[_candidateId].id == top3[1].id){\r\n                    if(candidates[_candidateId].voteCount > top3[0].voteCount){\r\n                        uint temp = top3[0].id;\r\n                        top3[0] = candidates[_candidateId];\r\n                        top3[1] = candidates[temp];\r\n                    } else {\r\n                        top3[1] = candidates[_candidateId];\r\n                    }\r\n                } else {\r\n                    top3.push(candidates[_candidateId]);\r\n                    challengers[2] = true;\r\n\r\n                    emit NewChallenger(_candidateId);\r\n                }\r\n            }\r\n        } else { // if there are already first three candidates by votes\r\n            uint place = candidates[_candidateId].voteCount;\r\n            if(place > top3[2].voteCount){\r\n                if(place > top3[1].voteCount){\r\n                    if(place > top3[0].voteCount){\r\n                        uint temp1 = top3[0].id;\r\n                        top3[0] = candidates[_candidateId];\r\n                        uint temp2 = top3[1].id;\r\n                        top3[1] = candidates[temp1];\r\n                        top3[2] = candidates[temp2];\r\n                    } else {\r\n                        uint temp = top3[1].id;\r\n                        top3[1] = candidates[_candidateId];\r\n                        top3[2] = candidates[temp];\r\n                    }\r\n                } else {\r\n                    top3[2] = candidates[_candidateId];\r\n\r\n                    emit NewChallenger(_candidateId);\r\n                }\r\n            }\r\n        }\r\n\r\n        emit votedEvent(_candidateId);\r\n    }\r\n\r\n    function registerVoter(address _voter) external {\r\n        require(registeredVoter[_voter] == false, \"WakandaContract:: Voter already registered\");\r\n        registeredVoter[_voter] = true;\r\n\r\n        emit VoterRegistered(_voter);\r\n    }\r\n\r\n    function winningCandidates() external returns(string memory, string memory, string memory){\r\n        //TODO Returns the top 3 candidates by vote count\r\n        if(challengers[2] == false){\r\n            if(challengers[1] == false){\r\n                if(challengers[0] == false){\r\n                    return ('', '', '');\r\n                } else {\r\n                    return (append(top3[0].name, \", votes: \", uint2str(top3[0].voteCount)), '', '');\r\n                }\r\n            } else {\r\n                return (append(top3[0].name, \", votes: \", uint2str(top3[0].voteCount)),\r\n                append(top3[1].name, \", votes: \", uint2str(top3[1].voteCount)), '');\r\n            }\r\n        } else {\r\n            return (append(top3[0].name, \", votes: \", uint2str(top3[0].voteCount)),\r\n            append(top3[1].name, \", votes: \", uint2str(top3[1].voteCount)),\r\n            append(top3[2].name, \", votes: \", uint2str(top3[2].voteCount)));\r\n        }\r\n    }\r\n\r\n    function uint2str(uint _i) internal pure returns (string memory _uintAsString) {\r\n        if (_i == 0) {\r\n            return \"0\";\r\n        }\r\n        uint j = _i;\r\n        uint len;\r\n        while (j != 0) {\r\n            len++;\r\n            j /= 10;\r\n        }\r\n        bytes memory bstr = new bytes(len);\r\n        uint k = len;\r\n        while (_i != 0) {\r\n            k = k-1;\r\n            uint8 temp = (48 + uint8(_i - _i / 10 * 10));\r\n            bytes1 b1 = bytes1(temp);\r\n            bstr[k] = b1;\r\n            _i /= 10;\r\n        }\r\n        return string(bstr);\r\n    }\r\n\r\n    function append(string memory a, string memory b, string memory c) internal pure returns (string memory) {\r\n        return string(abi.encodePacked(a, b, c));\r\n    }\r\n}\r\n",
  "sourcePath": "C:/Users/WIN 10/WebstormProjects/Starter-pack-ColorsNFT/src/contracts/WakandaContract.sol",
  "compiler": {
    "name": "solc",
    "version": "0.8.0+commit.c7dfd78e.Emscripten.clang"
  },
  "schemaVersion": "3.4.1",
  "updatedAt": "2021-09-26T10:27:02.917Z",
  "networkType": "ethereum",
  "devdoc": {
    "kind": "dev",
    "methods": {},
    "version": 1
  },
  "userdoc": {
    "kind": "user",
    "methods": {},
    "version": 1
  }
}